:020000040800F2
:1000000000000220010A0008FD090008615A0008EA
:10001000FD090008FD090008FD09000800000000B6
:10002000000000000000000000000000FD090008C2
:10003000FD09000800000000FD090008E55900085E
:10004000FD090008FD090008FD090008FD09000878
:10005000FD090008FD090008FD090008FD09000868
:10006000FD090008FD090008FD090008794600089F
:1000700085460008FD090008914600089D460008D5
:100080004D530008A93B0008FD090008FD090008C0
:10009000FD090008FD090008FD090008FD09000828
:1000A000FD090008FD090008FD090008FD09000818
:1000B00025100108311001083D100108DD3B000842
:1000C000FD090008E93B0008FD0900089508010842
:1000D000A108010881510008AD510008E151000854
:1000E000FD090008FD09000800000000FD090008E6
:1000F000FD090008FD090008FD090008FD090008C8
:10010000FD090008FD09000849100108AD080108B3
:100110001552000849520008FD090008FD090008B1
:10012000FD090008FD090008D108010805090108BA
:1001300081530008FD090008FD090008FD090008B9
:1001400000000000000000000000000000000000AF
:10015000FD090008FD090008FD0900087D5200089E
:10016000F53B0008FD090008F5590008195A000878
:10017000FD0900083D5A0008FD090008FD090008B6
:10018000FD090008FD090008B1520008E552000809
:10019000B9080108C5080108FD090008FD090008A3
:1001A000FD090008FD090008FD090008FD09000817
:1001B00099430008FD090008FD090008FD09000831
:1001C000FD090008FD0900082D3500083935000833
:1001D000FD09000845350008FD090008FD09000873
:1001E000FD090008FD090008FD090008FD090008D7
:1001F000FD090008FD090008FD090008FD090008C7
:10020000FD090008FD090008FD090008FD090008B6
:10021000FD090008FD090008FD090008FD090008A6
:10022000FD090008FD090008FD09000800000000A4
:10023000FD090008FD09000800000000FD09000894
:10024000FD090008FD090008FD090008FD09000876
:10025000FD090008FD090008FD090008FD09000866
:10026000FD090008FD090008FD090008FD09000856
:10027000FD090008FD0900081953000800000000EE
:10028000FD090008FD090008FD0900080000000044
:0802900000000000FD09000858
:1002A00010B5054C237833B9044B13B10448AFF3B0
:1002B00000800123237010BD1806002400000000F8
:1002C0006856010808B5034B1BB103490348AFF357
:1002D000008008BD000000001C06002468560108CC
:1002E00001F0FF01102A2BDB10F0070F08D010F8E7
:1002F000013B013A8B422DD010F0070F42B3F6D1EB
:10030000F0B441EA012141EA014122F007047FF003
:1003100000070023F0E80256083C85EA010586EA5A
:10032000010685FA47F5A3FA87F586FA47F6A5FA96
:1003300087F68EB9EED1F0BC01F0FF0102F00702A2
:1003400032B110F8013B013A83EA010313B1F8D14D
:100350000020704701387047002D06BF354603382E
:10036000073815F0010F07D1013015F4807F02BF67
:10037000013015F4C03F0130F0BC0138704700BFB8
:1003800081F0004102E000BF83F0004330B54FEA46
:1003900041044FEA430594EA050F08BF90EA020FB3
:1003A0001FBF54EA000C55EA020C7FEA645C7FEA46
:1003B000655C00F0E2804FEA5454D4EB5555B8BF69
:1003C0006D420CDD2C4480EA020281EA030382EADA
:1003D000000083EA010180EA020281EA0303362D6C
:1003E00088BF30BD11F0004F4FEA01314FF4801C3F
:1003F0004CEA113102D0404261EB410113F0004F51
:100400004FEA03334CEA133302D0524263EB430307
:1004100094EA050F00F0A780A4F10104D5F1200EA5
:100420000DDB02FA0EFC22FA05F2801841F1000100
:1004300003FA0EF2801843FA05F359410EE0A5F1D4
:1004400020050EF1200E012A03FA0EFC28BF4CF005
:10045000020C43FA05F3C01851EBE37101F00045BB
:1004600007D54FF0000EDCF1000C7EEB00006EEBC8
:100470000101B1F5801F1BD3B1F5001F0CD3490852
:100480005FEA30004FEA3C0C04F101044FEA4452A9
:1004900012F5800F80F09A80BCF1004F08BF5FEA30
:1004A000500C50F1000041EB045141EA050130BD10
:1004B0005FEA4C0C404141EB0101013C28BFB1F522
:1004C000801FE9D291F0000F04BF01460020B1FA6D
:1004D00081F308BF2033A3F10B03B3F120020CDA40
:1004E0000C3208DD02F1140CC2F10C0201FA0CF01E
:1004F00021FA02F10CE002F11402D8BFC2F1200C83
:1005000001FA02F120FA0CFCDCBF41EA0C01904038
:10051000E41AA2BF01EB0451294330BD6FEA040481
:100520001F3C1CDA0C340EDC04F11404C4F120026C
:1005300020FA04F001FA02F340EA030021FA04F37E
:1005400045EA030130BDC4F10C04C4F1200220FAD5
:1005500002F001FA04F340EA0300294630BD21FA13
:1005600004F0294630BD94F0000F83F4801306BFD9
:1005700081F480110134013D4EE77FEA645C18BFCD
:100580007FEA655C29D094EA050F08BF90EA020F64
:1005900005D054EA000C04BF1946104630BD91EA5C
:1005A000030F1EBF0021002030BD5FEA545C05D15F
:1005B0004000494128BF41F0004130BD14F580049E
:1005C0003CBF01F5801130BD01F0004545F0FE4112
:1005D00041F470014FF0000030BD7FEA645C1ABF47
:1005E000194610467FEA655C1CBF0B46024650EA7E
:1005F000013406BF52EA033591EA030F41F40021AA
:1006000030BD00BF90F0000F04BF0021704730B52F
:100610004FF4806404F132044FF000054FF0000104
:1006200050E700BF90F0000F04BF0021704730B5C5
:100630004FF4806404F1320410F0004548BF40429A
:100640004FF000013EE700BF42004FEAE2014FEAEF
:1006500031014FEA02701FBF12F07F4393F07F4FCA
:1006600081F06051704732F07F4208BF704793F0CD
:100670007F4F04BF41F40021704730B54FF46074E0
:1006800001F0004521F000411CE700BF50EA0102E3
:1006900008BF704730B54FF000050AE050EA01028C
:1006A00008BF704730B511F0004502D5404261EBFC
:1006B00041014FF4806404F132045FEA915C3FF43D
:1006C000D8AE4FF003025FEADC0C18BF03325FEADA
:1006D000DC0C18BF033202EBDC02C2F1200300FA8B
:1006E00003FC20FA02F001FA03FE40EA0E0021FAB0
:1006F00002F11444BDE600BF53B94AB9002908BF4E
:1007000000281CBF4FF0FF314FF0FF3000F074B9EC
:10071000ADF1080C6DE904CE00F006F8DDF804E058
:10072000DDE9022304B070472DE9F047089D044637
:100730008E46002B4DD18A42944669D9B2FA82F294
:1007400052B101FA02F3C2F1200120FA01F10CFAD0
:1007500002FC41EA030E94404FEA1C48210CBEFB08
:10076000F8F61FFA8CF708FB16E341EA034306FB91
:1007700007F199420AD91CEB030306F1FF3080F020
:100780001F81994240F21C81023E63445B1AA4B26D
:10079000B3FBF8F008FB103344EA034400FB07F70F
:1007A000A7420AD91CEB040400F1FF3380F00A8150
:1007B000A74240F207816444023840EA0640E41B45
:1007C00000261DB1D4400023C5E900433146BDE8F1
:1007D000F0878B4209D9002D00F0EF800026C5E993
:1007E000000130463146BDE8F087B3FA83F6002EAB
:1007F0004AD18B4202D3824200F2F980841A61EB23
:10080000030301209E46002DE0D0C5E9004EDDE740
:1008100002B9FFDEB2FA82F2002A40F09280A1EB28
:100820000C014FEA1C471FFA8CFE0126200CB1FB7D
:10083000F7F307FB131140EA01410EFB03F0884276
:1008400008D91CEB010103F1FF3802D2884200F203
:10085000CB804346091AA4B2B1FBF7F007FB101195
:1008600044EA01440EFB00FEA64508D91CEB040433
:1008700000F1FF3102D2A64500F2BB800846A4EB8E
:100880000E0440EA03409CE7C6F12007B34022FA79
:1008900007FC4CEA030C20FA07F401FA06F31C43A8
:1008A000F9404FEA1C4900FA06F3B1FBF9F8200CB5
:1008B0001FFA8CFE09FB181140EA014108FB0EF0FB
:1008C000884202FA06F20BD91CEB010108F1FF3A4B
:1008D00080F08880884240F28580A8F10208614457
:1008E000091AA4B2B1FBF9F009FB101144EA014165
:1008F00000FB0EFE8E4508D91CEB010100F1FF3410
:100900006CD28E456AD90238614440EA0840A0FBA7
:100910000294A1EB0E01A142C846A64656D353D07D
:100920005DB1B3EB080261EB0E0101FA07F722FAA1
:1009300006F3F1401F43C5E9007100263146BDE8CA
:10094000F087C2F12003D8400CFA02FC21FA03F32D
:10095000914001434FEA1C471FFA8CFEB3FBF7F0AE
:1009600007FB10360B0C43EA064300FB0EF69E42D3
:1009700004FA02F408D91CEB030300F1FF382FD26C
:100980009E422DD9023863449B1B89B2B3FBF7F614
:1009900007FB163341EA034106FB0EF38B4208D9ED
:1009A0001CEB010106F1FF3816D28B4214D9023E2E
:1009B0006144C91A46EA004638E72E46284605E74C
:1009C0000646E3E61846F8E64B45A9D2B9EB02081D
:1009D00064EB0C0E0138A3E74646EAE7204694E7AD
:1009E0004046D1E7D0467BE7023B614432E73046E0
:1009F00009E76444023842E7704700BFFEE700BFE2
:100A00000B480C4A904203D0121A0B4911F042FED7
:100A10000A480B4A904203D0121A002111F048FEF6
:100A200005F076FA11F00AFE01F0CAFCFEE700BFFD
:100A300000000024140600249C5601081806002417
:100A40004C3B0124704700BF49424FF48062103094
:100A5000C9B211F02DBE00BF704700BF704700BF84
:100A60004020704780207047704700BF10B5044693
:100A70004FF4826111F0BDFB204610BD1BB9136914
:100A80000BB1D26818477047B9B30144F0B51546A9
:100A9000A5B002F12407441E4E1E01E0A6422AD052
:100AA00014F8011F6A46384602F0F0FB0028F5D022
:100AB000D5F8C4C090226946D5E93203C31A00F1C3
:100AC000010E00EBC00048BF63440CF1FF3C9C45A5
:100AD000E4D0D5F8C030C5F8C8E003EB001011F041
:100AE000D9FDD5E931239342A3EB020328BFC5F812
:100AF000C830A642D4D125B0F0BD70472DE9F04FE3
:100B000085B0A1F1200504AC9DF83870009104E98E
:100B10000C00EBB25E2B00F29580036880465D4AC4
:100B2000DB689DF8084093429DF8096040F094808E
:100B30008020B8F804302344834200F38380D8F83F
:100B40000030554A9B68934240F088804020B8F8B6
:100B5000062093190192834274DC002E00F08980F4
:100B600006FB05F56FF00040039B964628442E4493
:100B7000B8F804A003EB4000023B03EB460B30F84F
:100B8000026FBCB30EF007034FF0010C4FEADE0218
:100B900051460CFA03FC0AF110034FFA8CFC03EBEC
:100BA000C21200236FEA0C0942440EE07F2907D8E5
:100BB000BEF13F0F04D815789FB14CEA05051570BA
:100BC0000133013201319C4214D006FA03F52D04A1
:100BD000ECD47F29F4D8BEF13F0FF1D81578002F5F
:100BE000EBD0013309EA0505013201319C4202F8DC
:100BF000015CEAD158450EF1010EC0D1D8F80030A1
:100C000054442449DA68A4B28A422DD18020844217
:100C10001CD29B68204AA8F80440934221D140206E
:100C2000019B834207D3D8F800301B4A9B6893424C
:100C300029D13F230193DDE90003A8F8063005B070
:100C4000BDE8F08F002005B0BDE8F08FDA681149EB
:100C50008A4211D17F24DCE798476AE740469847EB
:100C600075E740469847DBE740469047D8F80030A4
:100C7000CDE7B8F804A0C1E7404690470138D8F85E
:100C8000003084B2C5E740469847013883B20193EB
:100C9000D1E700BF650A0008610A00082DE9F04F9E
:100CA0004FF0B00885B0054600F1080700F18F0647
:100CB00000F28F494FF47A7B4FF0000A297B022320
:100CC00003AA3846CDF800B0A6F180048DF80CA038
:100CD0008DF80D8003F02AF8297B022303AA3846F9
:100CE000CDF800B08DF80CA08DF80DA003F01EF823
:100CF0004FF0100C297B022303AA3846CDF800B030
:100D00008DF80CA08DF80DC003F010F84FF47A7038
:100D100014F801CF4FF0400E297B0223009003AA64
:100D200038468DF80CE08DF80DC002F0FFFFB4429C
:100D3000ECD104F1800608F101084E455FFA88F80D
:100D4000B8D105B0BDE8F08F7F291ED83F2A1CD846
:100D50006BB1D3084FF0010C02F0070201EBC31393
:100D60000CFA02F2C1180B7C1A430A747047D308BC
:100D70004FF0010C02F0070201EBC3130CFA02FC66
:100D8000C1180A7C22EA0C020A7470472DE9F04F60
:100D900089B008AC9DF84870019104E90C000B780B
:100DA000002B00F0AB801A469DF818809DF8193092
:100DB0000646454690460393079B0593A8F12004F9
:100DC000E3B25E2B00F29E8033685E4ADB6893429A
:100DD00040F09B808020B3882B44834200F39280B4
:100DE0003368594A9B68934240F092804020F188D2
:100DF000039A02918B18834200F38480002A00F04A
:100E0000918002FB04F46FF00049059BA144144457
:100E1000B6F804B003EB4909023BCDF8108003EBB0
:100E200044030C469A4639F802CFA5B304F00703F1
:100E30004FF0010EE20859460EFA03FE0BF11003C3
:100E40004FFA8EFE03EBC21200236FEA0E08324403
:100E50000DE07F2906D83F2C04D8107897B14EEAD0
:100E600000001070013301320131AB4213D00CFA93
:100E700003F00004EDD47F29F4D83F2CF2D8107889
:100E8000002FECD0013308EA000001320131AB42FF
:100E900002F8010CEBD1D14504F10104C3D1DDF816
:100EA000108032680BEB05042649D368A4B28B424C
:100EB00034D18020844204D3D36822498B423AD172
:100EC0007F249368204AB480934224D14020029B1F
:100ED000834206D333681C4A9B68934225D13F2343
:100EE0000293029BF380019B1878404507D113F8C9
:100EF000018F0193B8F1000F7FF460AF002009B0BB
:100F0000BDE8F08F4FF00008EDE73046984762E704
:100F1000304698476BE730469847D8E730469847C1
:100F20003268C7E7B6F804B0BBE7304698470138E7
:100F300083B20293D5E7304698470138326884B2CD
:100F4000BFE700BF650A0008610A00082DE9F04FFD
:100F500083B05C1A0C9E002C9DF83490A6EB02081E
:100F6000B8BF6442B8F1000FB8BFC8F100088B42A7
:100F70008CBF4FF0010A4FF0FF3A9642A4EB080CE9
:100F800051D84FF0FF357F2B019512D83F2E10D846
:100F9000F50806F0070E012703EBC5150544B9F166
:100FA000000F47D007FA0EF795F810E047EA0E0752
:100FB0002F74964201D18B4229D0C8F100077F29B6
:100FC00014D83F2A12D8D50802F0070B4FF0010EB3
:100FD00001EBC5150544B9F1000F1BD00EFA0BFE4D
:100FE00095F810B04EEA0B0E85F810E0B7EB4C0FF9
:100FF0004FEA4C0502DAACEB080C5144AC4202DD7E
:10100000019DA4442A449942D9D19642D7D103B034
:10101000BDE8F08F0EFA0BFB95F810E02EEA0B0EF0
:1010200085F810E0E2E701257F2B0195C5D83F2E1A
:10103000AED9C2E707FA0EFE2F7C964227EA0E07CA
:101040002F74B8D0B9E700BF2DE9F04F2DED068B16
:1010500083B01F4680460D469DF8503016460193DA
:10106000139B002BC0F22182129A134406EE103A11
:10107000DDED127AB8EEC66B9FEDCD4BB8EEE77B97
:101080009FEDCD5B27EE047B26EE046B87EE050B10
:1010900086EE05ABF7EEC08BB0EE680A11F0B0F843
:1010A00007EE907AB7EECAABF8EE679AB0EE408AD8
:1010B000B0EE680A11F0A0F960EE698AB0EE4A0A53
:1010C00011F09EF8B0EE409AB0EE4A0A11F094F991
:1010D00020EE690A29EE888A29EE899A70EE687AEC
:1010E000F0EE006A39EE487A67EEA77AE7EE077A03
:1010F000F4EEE67AF1EE10FA06D5139BB42B40F32A
:1011000096804FF0010901E04FF000090124784278
:101110004FF0000C0095E31B214627462246A340D2
:10112000B9F1000F6AD1424206EE90CACCF100013B
:1011300007EE102AB8EEE66A07EE901A06EE900A5D
:10114000B8EEC77A139A66EE084AF8EEE77AB42A40
:1011500027EE284AF8EEE66A67EE885A74EEC43A3B
:1011600026EEA85A26EE096A66EE806A67EE897A4C
:1011700027EE007AF5EEC03A40F3F280F1EE10FA75
:1011800000F17F8176EE473A74EEC54AF5EEC03A3B
:10119000F1EE10FAF5EEC04ACCBF01220022F1EECA
:1011A00010FA00F1778136EE666A35EEC55AB5EE73
:1011B000C06AF1EE10FAB5EEC05ACCBF0121002191
:1011C000F1EE10FA00F16F8177EEE66AF5EEC06A93
:1011D000F1EE10FACCBF0127002775EEC45AF5EEE8
:1011E000C05AF1EE10FA00F1478177EEC77AF5EEBA
:1011F000C07AF1EE10FACCBF01240024002A40F09E
:101200008A80002964D1BFB9C4BB9C4558DB0CF16E
:10121000010C03EB4C0E1CEB000F0EF1010E00F065
:10122000C08098424FDB734600287FF779AF03B048
:10123000BDEC068BBDE8F08F009DA6EB0C0E00EB1D
:10124000050ABAF17F0FDFD8BEF13F0FDCD84FEAB5
:10125000DE0B019D0AEBCB1A002D00F0B1800EF0E1
:10126000070BC2444FF0010E0EFA0BFE9AF810B0B5
:101270004EEA0B0E8AF810E0002CC6D0009DA6EBBB
:101280000C0EA5EB000ABAF17F0FBED8BEF13F0FDE
:10129000BBD84FEADE0B019D0AEBCB1A002D00F004
:1012A000AE800EF0070BC2444FF0010E9C450EFAC3
:1012B0000BFE9AF810B04EEA0B0E8AF810E0A6DA90
:1012C00098429E46AFDA01300EEB40030133ABE7A4
:1012D000009D0CEB060E00EB050ABAF17F0F92D8C9
:1012E000BEF13F0F8FD84FEADE0B019D0AEBCB1A00
:1012F000002D73D00EF0070BC2444FF0010E0EFA12
:101300000BFE9AF810B04EEA0B0E8AF810E0002F90
:101310003FF47AAF90E7009D0CEB060EA5EB000AB8
:10132000BAF17F0F3FF66DAFBEF13F0F3FF669AFE9
:101330004FEADE0B019D0AEBCB1A002D6DD00EF0AB
:10134000070BC2444FF0010E0EFA0BFE9AF810B0D4
:101350004EEA0B0E8AF810E000293FF454AFB7E7CD
:10136000F1EE10FA7ED44A4674EEC54AF5EEC04A54
:10137000F1EE10FA6CD4002135EEC55AB5EEC05A24
:10138000F1EE10FA5AD4002775EEC45AF5EEC05AA1
:10139000F1EE10FA3FF529AF0024002A3FF431AFF7
:1013A000B9E798428FDB00233BE700BFAFF3008033
:1013B0007A008BFCFA2109400000000000806640A2
:1013C000C2444FF0010B0EF0070E0BFA0EFE9AF816
:1013D00010B02BEA0E0E8AF810E015E7C2444FF069
:1013E000010B0EF0070E0BFA0EFE9AF810B02BEA66
:1013F0000E0E8AF810E0002F3FF406AF1CE7C2443F
:101400004FF0010B0EF0070E0BFA0EFE9AF810B01B
:101410002BEA0E0E8AF810E0F7E6C2444FF0010BFB
:101420000EF0070E0BFA0EFE9AF810B02BEA0E0E15
:101430008AF810E000293FF4E6AE49E777EEE66A65
:10144000F5EEC06AF1EE10FACCBF012700279BE74A
:1014500036EE666AB5EEC06AF1EE10FACCBF012135
:10146000002189E776EE473AF5EEC03AF1EE10FA40
:10147000CCBF0122002277E70124002A3FF4C1AE4D
:1014800049E774EEC54A0122F5EEC04AF1EE10FAC2
:101490007FF589AE35EEC55A0121B5EEC05AF1EEA1
:1014A00010FA7FF591AE012797E6DDE91223134488
:1014B00006EE102A1293139B5B421393D8E500BFEC
:1014C0002DE9F04F89B01D46884606901046129CC3
:1014D00010F8013B13999DF85060009233B100223F
:1014E00010F8013B0132002BFAD193B22A786878C8
:1014F00012FB03F302B21BB223EAE373082900F2E2
:10150000A981DFE811F00201140120013401420138
:101510005001670171010900A18827880F44B4F9BF
:101520000610FF1A0029BFB2C0F2FF80B4F802C053
:1015300006980CEB6104C280A4EB52028380078002
:1015400094B24480A64AD8F8003011460192DA6875
:101550008A4240F08D818020B84205D8DA6801992E
:101560008A4240F09A817F279E4A9B68A8F80470BF
:101570009342039240F089814020A04207D8D8F8D6
:101580000030039A9B68934240F082813F24009B85
:10159000A8F8064093F800B06B782C7804936B6839
:1015A0000793BBF1000F00F0AC80ABF12005EBB26C
:1015B0005E2B00F22E81D8F80030019ADB6893424E
:1015C00040F02A818020B8F8043023449842C0F2C9
:1015D0002081D8F80030039A9B68934240F01F8125
:1015E0004020B8F80610049A02918B189842C0F275
:1015F0001081002A00F01E8102FB05F56FF0004EFD
:10160000079BAE441544CDF814B003EB4E0E023BDD
:10161000B8F804A003EB45030D469B463EF8027F55
:10162000A4B305F007034FF0010CEA0851460CFA89
:1016300003FC0AF110034FFA8CFC03EBC2120023E7
:101640006FEA0C0942440DE07F2906D83F2D04D8EB
:10165000107896B14CEA000010700133013201316C
:101660009C4213D007FA03F00004EDD47F29F4D88C
:101670003F2DF2D81078002EECD0013309EA00009B
:10168000013201319C4202F8010CEBD1F34505F126
:101690000105C3D1DDF814B0D8F800200AEB040529
:1016A0000199D368ADB28B4240F0BF808020854263
:1016B00005D3D36801998B4240F0C5807F2593689C
:1016C000039AA8F80450934240F0AC804020029B5B
:1016D000834208D3D8F80030039A9B68934240F0C5
:1016E000AC803F230293029BA8F80630009A13783F
:1016F0005B4506D112F801BF0092BBF1000F7FF4E9
:1017000054AF069809B0BDE8F08FB4F904102788EB
:101710000029B8BF013107EB6107B4F90610A7EB48
:1017200063070029BFB2BFF601AF0131FEE6B4F98D
:1017300000700699B4F902400F80BFB24C80A4B289
:101740008B80CA80FEE6B4F9041027880029B4F91A
:101750000240B8BF013107EB610706998B80A7EB08
:1017600063034C80A4B29FB2CA800F80EAE6A188CE
:101770002788B4F902400F4406998B80FB1A4C80ED
:10178000A4B29FB2CA800F80DCE6E7886188394442
:10179000B4F90070081A069984B20F808B80BFB22A
:1017A000CA804C80CEE6B4F9041027880029B8BF5F
:1017B000013107EB6107A7EB6307B4F802C0BFB2C2
:1017C000E488069964448B80201ACA800F8084B212
:1017D0004C80B7E62788A1880F44FF1AEDE700BFC9
:1017E000650A0008610A0008B4F90610B4F802C0DE
:1017F0000029B4F900700698B8BF0131C2800CEB23
:10180000610407808380BFB2A4EB520294B244808B
:1018100098E64FF0000B69E740469847D3E640460C
:101820009847DEE64046984751E740469847D8F843
:1018300000203CE7B8F804A02EE74046984701385E
:1018400083B202934FE7404698470138D8F800200A
:1018500085B234E7D8F800300024069A1249148083
:1018600054809480D480DA6801918A4205D027465A
:1018700040469047D8F800306EE69B680B4AA8F8BF
:101880000440934203923FF482AE4046984774E688
:1018900040469847013884B279E64046904701387F
:1018A000D8F8003087B25FE6650A0008610A0008D0
:1018B0002DE9F04F87B09DF84850109C2E460195B9
:1018C0009DF844509EB399422ED89946A24228D8FA
:1018D0007F29164694BF0023012308E09CF810805E
:1018E0004EEA080E8CF810E00136B44219D33F2EB0
:1018F000FAD8002BF8D14FEAD60C06F0070E4FF0BD
:10190000010801EBCC1C08FA0EFE8444002DE5D141
:101910009CF810B001362BEA0E0AB4428CF810A0E5
:10192000E5D201318945D1D207B0BDE8F08FA3EBF4
:101930000108B8F1000FB8BFC8F100089942C0F023
:101940004E817F2B4FF0FF3A94BF002601263F2A9D
:10195000009694BF002701270297A6B99FB9D60821
:1019600002F0070C012703EBC6160644002D00F019
:10197000948107FA0CF796F810C047EA0C07377401
:10198000002602960096994200F0978146469446BA
:101990008E46BEF17F0F16D8BCF13F0F13D84FEA29
:1019A000DC070CF0070B4FF001090EEBC7170744DB
:1019B000002D00F0398109FA0BF997F810B049EAC7
:1019C0000B0987F81090770018BFD644B84502DDA0
:1019D00046440CF1FF3C7345DBD16245D9D100266A
:1019E0000496A4EB0209009FB9F1000FB8BFC9F13A
:1019F00000093F2C94BF00260126A242C9F100082D
:101A00000396C0F02381002F40F05081002E40F05B
:101A10004D814FF0FF360096E60803EBC6160644EC
:101A2000002D00F01E814FF0010C04F007070CFAA6
:101A300007F796F810C047EA0C073774002603969C
:101A4000A24200F03D81C44616461F4605927F2FF4
:101A500015D83F2E13D84FEAD60E06F0070B4FF0DD
:101A6000010A07EBCE1E8644002D00F0E6800AFA3C
:101A70000BFA9EF810B04AEA0B0A8EF810A0B8EBE9
:101A80004C0F4FEA4C0E02DAACEB090C013FBEF1F1
:101A9000000F01D0009A1644BB42D8D1B442D6D12F
:101AA000059AA1EB030EBEF1000FB8BFCEF1000EF8
:101AB0007F2994BF4FF0000A4FF0010A99428CBF72
:101AC0004FF001094FF0FF39BAF1000F13D1039E17
:101AD0008EB9E60801EBC6160644002D00F0D3804F
:101AE0004FF0010C04F007070CFA07F796F810C046
:101AF00047EA0C073774049E26BB774626467F2BA1
:101B000014D83F2E12D84FEAD60C06F0070B4FF030
:101B1000010803EBCC1C8444002D73D008FA0BF8A9
:101B20009CF810B048EA0B088CF810805FEA470C6C
:101B300018BF4B44E64501DD7744013E9942DED1B2
:101B4000B442DCD1A2EB040EBEF1000FB8BFCEF15F
:101B5000000EA2428CBF4FF001084FF0FF38CEF1CB
:101B6000000CBAF1000F0ED1029B63B9D30802F04A
:101B70000707012601EBC3130344002D7CD0BE40B0
:101B80001F7C3E431E74019B002B7FF4CDAE664646
:101B90000B467F2B12D83F2C10D8E70804F0070A19
:101BA0004FF0010903EBC7170744A5B309FA0AF977
:101BB00097F810A049EA0A0987F81090BCEB460F85
:101BC0004FEA460702DAA6EB0E06013B07B1444492
:101BD0009942DED1A242DCD107B0BDE8F08F3F2AA6
:101BE0004FF0010A94BF002601267F2B029694BF76
:101BF000002701270097002E7FF4C8AE002F3FF486
:101C0000AEAEC3E608FA0BFB9CF8108028EA0B087E
:101C10008CF810808AE709FA0AFA97F8109029EAF6
:101C20000A0987F81090C9E709FA0BFB97F810909A
:101C300029EA0B0987F81090C5E60AFA0BFB9EF813
:101C400010A02AEA0B0A8EF810A018E797BB8EBBEB
:101C500001260096E60803EBC6160644002D7FF425
:101C6000E2AE012704F0070C039507FA0CFC377C61
:101C700027EA0C073774E3E606FA07F71E7C26EA24
:101C800007061E747FE7012704F0070C07FA0CFC17
:101C9000377C27EA0C0737742DE707FA0CFC377CF2
:101CA000029527EA0C07009537746CE64FF0FF3673
:101CB0000096C5E601260096C5E60126049690E644
:101CC00001260196EDE600BF02780B4610B4092A02
:101CD00046D8DFE802F00C11191F252E343D3F05D0
:101CE000224A03CA186059605DF8044B7047204AC5
:101CF00003CA18605960F7E71E4A10689188927904
:101D0000186099809A71EFE71B4C07CC18605960F6
:101D10009A60E9E7194A1188927819809A70E3E786
:101D2000174A03CA148892781C81186059609A7205
:101D3000DAE7144C07CC186059609A60D4E7124A6D
:101D400003CA1288186059601A815DF8044B704705
:101D50000E4AF5E70E4C07CC186059609A60C3E74D
:101D60000C4A03CA18605960BEE700BF603B010817
:101D7000043B01080C3B0108143B0108203B01080F
:101D8000243B0108303B01083C3B0108483B01086B
:101D9000543B0108683B01082DE9F043002585B05C
:101DA000394C002307E091F810E0013346EA0E06B3
:101DB000402B0E7418D0D90803F007064FEA831C95
:101DC0004FF0010E05EBC11110F80CC00EFA06F62B
:101DD00021440A46BCF1000FE5D1097C013321EA18
:101DE0000607402B1774E6D101350130402DD8D1BC
:101DF000DFF89C804FF0B0094FF47A770026022379
:101E000003AA217BA8F18005204800978DF80C607B
:101E10008DF80D9001F08AFF022303AA217B1B4855
:101E200000978DF80C608DF80D6001F07FFF4FF08A
:101E3000100C022303AA217B144800978DF80C6034
:101E40008DF80DC001F072FF4FF47A7C15F8016F28
:101E50004027022303AA217B0C48CDF800C08DF84F
:101E60000C708DF80D6001F061FFA845ECD109F10F
:101E7000010908F180085FFA89F9B9F1B80FBBD1FF
:101E800005B0BDE8F08300BF340600243C06002402
:101E9000C306002480B24A4B89B27F2828BF7F2026
:101EA0003F292DE9F04F28BF3F21DFF818A187B067
:101EB0001D78AAF806105978AAF80400039192F840
:101EC00000B059680591BBF1000F73D09146ABF19A
:101ED0002003DAB25E2A70D8BAF804E00EEB0502ED
:101EE000802A029269DCBAF80620039901920A441A
:101EF000402A62DC002947D0039A6FF00047CDF8F2
:101F000010B002FB03F301981F441344059A02EB3F
:101F10004707023A02EB43039B4637F802CF6DB303
:101F200000F0070301260EF1100200249E40C308B2
:101F300076B202EBC31372466FEA060853440BE015
:101F40007F2A04D83F2802D8197831431970013408
:101F500001330132A54211D00CFA04F10904EFD487
:101F60007F2AF4D83F28F2D819780134013301329E
:101F700008EA0101A54203F8011CEDD1BB4500F1BF
:101F80000100CAD1DDF810B0019ABDF808303F2A2F
:101F900028BF3F227F2B28BF7F23AAF80620AAF85C
:101FA000043099F800305B4504D119F801BFBBF14A
:101FB000000F8CD107B0BDE8F08F4FF0000BF0E7B9
:101FC000F4020024340600242DE9F043374E0021AA
:101FD00085B04FF4806206F11000716010F068FB6C
:101FE0003348FFF7D9FE334A00214220FFF752FF62
:101FF000314A0A214220FFF74DFF06F18F072F4A91
:102000001E2142204FF0B008FFF744FF2C4A282140
:102010004220FFF73FFF4FF47A790025022303AAFD
:10202000317BA7F180042748CDF800908DF80C5043
:102030008DF80D8001F07AFE022303AA317B21483E
:10204000CDF800908DF80C508DF80D5001F06EFE1B
:102050004FF0100C022303AA317B1A48CDF80090F0
:102060008DF80C508DF80DC001F060FE4FF47A75BC
:1020700014F801CF4FF0400E022303AA317B114820
:1020800000958DF80CE08DF80DC001F04FFEBC42BC
:10209000ECD108F1010804F180075FFA88F8B8F183
:1020A000B80FB8D105B0BDE8F08300BF34060024F6
:1020B0000C3C0108703B0108783B0108803B01089B
:1020C000883B01083C0600242DE9F0474FF0B0089A
:1020D00084B0054600F1870700F287494FF47A7A09
:1020E00000262979022303AA2846CDF800A0A7F1EB
:1020F00080048DF80C608DF80D8001F017FE2979B1
:10210000022303AA2846CDF800A08DF80C608DF8B4
:102110000D6001F00BFE4FF0100C2979022303AA89
:102120002846CDF800A08DF80C608DF80DC001F0A8
:10213000FDFD4FF47A7614F801CF4FF0400E297967
:10214000022303AA284600968DF80CE08DF80DC0F6
:1021500001F0ECFDBC42ECD104F1800708F101086C
:102160004F455FFA88F8B9D104B0BDE8F08700BFE9
:1021700084B070B584B004464FF47A7609AD85E832
:102180000E009DF8383029460025037101F038FD16
:10219000AE2303AA00968DF80D3020462179022344
:1021A0008DF80C5001F0C2FDD52303AA00962046FD
:1021B00021798DF80D3002238DF80C5001F0B6FD19
:1021C000802303AA0096204621798DF80D30022342
:1021D0008DF80C5001F0AAFDA82303AA0096204612
:1021E00021798DF80D3002238DF80C5001F09EFD01
:1021F0003F2303AA0096204621798DF80D30022353
:102200008DF80C5001F092FDDA2303AA00962046C7
:1022100021798DF80D3002238DF80C5001F086FDE8
:10222000122303AA0096204621798DF80D3002234F
:102230008DF80C5001F07AFDD32303AA00962046B6
:1022400021798DF80D3002238DF80C5001F06EFDD0
:1022500003AA00960223217920468DF80C508DF8B0
:102260000D5001F063FD402303AA0096204621791A
:102270008DF80D3002238DF80C5001F057FDA62388
:1022800003AA0096204621798DF80D3002238DF89F
:102290000C5001F04BFDA42303AA0096204621799F
:1022A0008DF80D3002238DF80C5001F03FFD8D2389
:1022B00003AA0096204621798DF80D3002238DF86F
:1022C0000C5001F033FD142303AA00962046217917
:1022D0008DF80D3002238DF80C5001F027FDA1235D
:1022E00003AA0096204621798DF80D3002238DF83F
:1022F0000C5001F01BFDC82303AA0096204621794B
:102300008DF80D3002238DF80C5001F00FFD812364
:1023100003AA0096204621798DF80D3002238DF80E
:102320000C5001F003FD8F2303AA0096204621796B
:102330008DF80D3002238DF80C5001F0F7FCD923F5
:1023400003AA0096204621798DF80D3002238DF8DE
:102350000C5001F0EBFC252303AA009620462179BE
:102360008DF80D3002238DF80C5001F0DFFCDB23DB
:1023700003AA0096204621798DF80D3002238DF8AE
:102380000C5001F0D3FC342303AA00962046217997
:102390008DF80D3002238DF80C5001F0C7FCAF21F1
:1023A000009603AA02238DF80D10204621798DF89E
:1023B0000C5001F0BBFC04B0BDE8704004B07047A5
:1023C0002DE9F04FFDB0A04800F064FA00210AACFE
:1023D0009D4800F037FB002000F00EFF204600F083
:1023E00041FF9A4D0DF1D00B94E80F0014AC84E836
:1023F0000F0094E80F00002485E80F000123CDE9C9
:102400005A345D9347F612235E9302235C9395E85A
:102410000F008BE80F00599010461A46BBF80430A5
:10242000ADF86231BBF80630C5E90502ADF86031A0
:1024300012B1214610F03CF958AE854C84484FF05B
:10244000000831460EAF03F051F804F1140000F01B
:10245000D5FF804B204614212B62ED6103F094FAE6
:102460007D4B20460094DFF804A2D5E9051203F065
:10247000A7F803F065FB044607900B2000F00CFA68
:10248000ADF83C000C2000F007FA0223ADF83E0046
:10249000B44610931023CDF838800DF5B67E8DF834
:1024A00048303C23CDF844808DF84C30012306940D
:1024B0000993CDF82080694C0FCFACE80F0097E866
:1024C00003008CE803009EE807008DE807000AF18E
:1024D000080096E80E00FFF74BFEFFF775FD4FF47E
:1024E000FA6003F02FFB4FF4806241460AF11000BE
:1024F00010F0DEF840465A4A4146FFF7CBFC0AF19D
:102500000800FFF7E1FD03F01BFB0590504803F0C6
:10251000E1F8002800F08580D5E93227D31B4DD49F
:10252000002B50D0BA4265D0D5F8C09007EBC70356
:102530009022304609EB03181B014146049310F02A
:10254000A9F8049BD5F8C42019F803907B1C98F8CF
:102550000870934298F80980C5F8CC3002D39B1AD2
:10256000C5F8CC3090223146584610F093F8B9F1B6
:10257000010F49D06168D4E90223D31A48BF5B1820
:1025800001399942C8D0236802EBC2000132594692
:1025900003EB00108BF80090A26090228BF808707B
:1025A0008BF8098010F076F8D4E901239342B3D375
:1025B0009B1AD5E93227A360D31BB1D5D5F8C41037
:1025C0000B44002BAED1059A0799521AB2F5FA6F57
:1025D0004ED8DDE905329B1AB3F5FA7F93D9059BF6
:1025E00019480693099B194683F00103099300F0EB
:1025F00069F988E74FF00008902258464146C146E5
:10260000474610F055F8B5E7164B032231461048FF
:102610001B688DF8628133808DF8617103F05EF87C
:10262000A8E7114800F0EAFE0A4B142108482B6283
:10263000ED6103F0A9F9064B05480093064BD5E977
:10264000051202F0BDFF67E7E45200242453002482
:1026500034530024890A00087D0A0008440A002433
:10266000903B0108BC3A010848530024340600247A
:102670004FF4806219465848049310F019F8089BEB
:1026800014A85649002B14BF5C222F2210F00CF91D
:10269000049B14AA19461846FFF7FCFBD4E9023242
:1026A0009A1A01D563681A44089B14A84C4983F010
:1026B0000103089310F0F8F814AA0A210020FFF78C
:1026C000E9FBD4E90238434553D10023454F4FF08D
:1026D000B009C4E902334FF47A734FF00008324670
:1026E0009AF80C10009302233F488DF860818DF812
:1026F000619101F01BFB4FF47A7332469AF80C108B
:102700000093022338488DF860818DF8618101F0D3
:102710000DFB4FF47A7332469AF80C100093102395
:1027200031488DF8613102238DF86081A7F180086E
:1027300001F0FCFA18F8013F4FF47A729AF80C1085
:102740008DF861314023009232468DF860310223CA
:10275000254801F0EBFAB845ECD109F1010308F185
:1027600080075FFA83F9B9F1B80FB4D1059B0793DD
:102770002FE7142703E0D4E902384345A5D02368A6
:1027800008EBC8019022304603EB01110FF082FFE5
:10279000D4F804C008F1010390223146584663453D
:1027A000E360A3EB0C0328BFE3600FF073FF314637
:1027B0005846FFF789FADBF8043032460B4914A873
:1027C00010F072F8394614AA0020FFF763FB322F8D
:1027D00007F10A07CFD178E744060024A03B01089F
:1027E000B03B0108C30600243C060024C03B01089E
:1027F00038B51D4800241D4A1D4904604461046227
:10280000C4630FF0F1FC1B4B1B481C4D174A1C49BD
:10281000036084600FF0E8FC284600F023FD1949AE
:1028200040F20F73114AC5F8B81005F1D001A5F8B0
:10283000BC3040F2011328462C61C5F8C840C5F8E9
:10284000CC40C5E9301310490FF0CEFC0F48812170
:10285000064A00F11003C460C0E9011403600C498A
:10286000BDE838400FF0C0BCE45200240000002452
:10287000450A0008D83B01083406002424530024EC
:102880005D0A00080080707F690A0008440A00247D
:10289000590A0008704700BF202882B009D8084BA9
:1028A00003EB400213F81030507843EA002002B0E6
:1028B000704701230C2043EA002002B0704700BF9C
:1028C0000C4C0108253001F01BB800BF10B540F2D8
:1028D00003338EB000244FF60B7240F20341ADF883
:1028E000083009A80123ADF81020ADF824202246B5
:1028F000ADF80C100094029907940C94CDE90544AE
:10290000CDE90A4400F024FE04A8012322460399DD
:10291000009400F01DFE09A800F000FF10B901208E
:102920000EB010BD04A800F0F9FEA0420CBF0220BA
:1029300020460EB010BD00BF2DE9F04103239AB030
:10294000012700240646CDE914373B4BCDE910435F
:1029500040F20453CDE91647ADF84830FFF7B6FF13
:10296000B842054625D0022845D040F60132334B07
:102970000DF12C081894ADF82C200B981997CDF870
:102980004A3000F0E3F810A906F13C0001F08CFE9B
:10299000302003224FF07E5341460D930E93CDE934
:1029A0000B02F26B06F1140000F04CFB1AB0BDE80C
:1029B000F0811023214A06A906908DF828300DF1E8
:1029C0002C081F4BCDF84A2007930294CDE9180438
:1029D000CDE9080402A801F013F90823029A03A91B
:1029E0004046ADF80C508DF80E40049505930B94BD
:1029F00000F0ECF8C7E700200121104B0DF12C0886
:102A00003A460094CDF84A304FF60B730C94ADF86B
:102A10002C302346CDE9180140F601314046ADF88F
:102A200018100699CDE90D4400F092FD214640466C
:102A300000F080FEA7E700BF0402040404060403BC
:102A40000704010B2DE9F04704462DED028B82B0FF
:102A500000294DD0012140F2011200230091ADF870
:102A600004208DF80630364A0127364B04F104095C
:102A7000354904F12908626040F20272A36040F611
:102A80000663E16004F1250AA4F82520A4F82930A2
:102A9000278284F8277084F82B7003F0EFF905463D
:102AA00003F052F86946064650BB4DB304F13000BE
:102AB0008DF8067003F06AF9072D3CD104F1140576
:102AC0002046FFF739FF284600F0F8FA2846B0EE16
:102AD000408A00F0EFFAD0ED007AF8EE677A88EEDF
:102AE000277A84ED0E7A02B0BDEC028BBDE8F08748
:102AF00040F2011300918DF80610ADF80430B2E7F2
:102B000004F1300003F042F9072D11D04946204668
:102B100001F0BEFA0EB9002DD0D1504600F014FEDF
:102B2000404600F011FE04F1120000F079F9C5E70B
:102B3000002EF2D1C2E74946204601F0A9FABDE7CE
:102B40000508050905070506050A060610B584B03F
:102B500003460124ADF8040003A8ADF80C30ADF82D
:102B60000E4000F0F1FD214603A800F0C9FE20460A
:102B700002F0E8FF002103A800F0C2FE204602F0A8
:102B8000E1FF214603A800F0BBFE04B010BD00BF6A
:102B900010B5C2F3002384B00C46017C8DF80D20E3
:102BA00043EA4402FA2402238DF80C2003AA00947D
:102BB00001F0BCF818B10124204604B010BD044651
:102BC0000A2002F0BFFF204604B010BD034670B5D6
:102BD00043F8042B044684B007C983E80700A379AF
:102BE00083B91A210B461E22FA2523742046ADF81C
:102BF0000C20022303AA009501F098F828B10120C7
:102C000004B070BD1B210B46EDE70A2002F09AFFCD
:102C10004FF4B85200950223ADF80C20204603AAC9
:102C2000217C01F083F80028E9D10A2002F08AFF14
:102C300041F2027200950223ADF80C20204603AA4F
:102C4000217C01F073F80028D9D10A2002F07AFF24
:102C5000042200950223ADF80C20204603AA217C13
:102C600001F064F80028CAD10A2002F06BFF0622A6
:102C700000950223ADF80C20204603AA217C01F028
:102C800055F80028BBD10A2002F05CFF41F208226F
:102C900000950223ADF80C20204603AA217C01F008
:102CA00045F80028ABD10A20064602F04BFF0095FC
:102CB000022303AA217C2046ADF80C6001F036F80F
:102CC00000289CD1304602F03DFF009522790C236C
:102CD0002046002A8DF80C3003AA4FF0020314BFDF
:102CE000622142218DF80D10217C01F01FF800288F
:102CF00085D1304602F026FF2279D4E902310B4318
:102D0000DBB20AB943F0400362790AB143F0200311
:102D10000E22FA258DF80D302046009502238DF8FD
:102D20000C2003AA217C01F001F800287FF467AF92
:102D30000A2002F007FF102200950223ADF80C20B4
:102D4000204603AA217C00F0F1FF00287FF457AF52
:102D50000A2002F0F7FE122100950223ADF80C10B4
:102D600003AA217C204600F0E1FF00287FF447AF52
:102D70000A2002F0E7FE012209212046FFF708FFA2
:102D8000003818BF01203BE7F0B5102387B0234C73
:102D9000012200250126002702A920460195CDE940
:102DA00002234FF48052CDE9046709F071FB6420DF
:102DB00003F0A2FE02A94FF480522046CDE9046739
:102DC00002261027CDE9026709F062FB03221023D7
:102DD00002A92046CDE9022300230422CDE90423E1
:102DE0004FF4805209F054FB40F23223042202A92E
:102DF000019310232046CDE90223019A0123059275
:102E00004FF48052049309F043FB40F6060120463C
:102E100009F05EFB284607B0F0BD00BF8CE400243B
:102E20001C4B00221C494FF0400C30B5054689B0C0
:102E30000220596007219A601A620124DA620A228C
:102E40004FF4006EDC6006922022CDE900010420E0
:102E50000821CDE9020103201021CDE90401082059
:102E60006946C3E904024FF4C072181DC3E906C2E3
:102E70004FF48052C3E909E209F0E0FA38B9284674
:102E8000FFF782FF003818BF012009B030BD20468F
:102E900009B030BD88E4002440410052614A00215D
:102EA000D0B513688EB00A91002B40F0B9805E4B0C
:102EB00001214FF683700C2411600221D3F8D42035
:102EC0000026032742F48052C3F8D420D3F8D4203C
:102ED00002F480520092009AD3F8E02042F01002EF
:102EE000C3F8E020D3F8E02002F010020192019A2A
:102EF000D3F8E02042F04002C3F8E020D3F8E0200D
:102F000002F040020292029AD3F8E02042F0080256
:102F1000C3F8E020D3F8E02002F008020392039AFD
:102F2000D3F8E02042F48072C3F8E020D3F8E02028
:102F300002F480720492049AD3F8E02042F08002F6
:102F4000C3F8E020D3F8E02002F080020592059A51
:102F5000D3F8E02042F02002C3F8E020D3F8E020CC
:102F600002F020020692069AD3F8E02042F0040212
:102F7000C3F8E020D3F8E0300C9403F00403079387
:102F80000323079A0B93CDE9080108A9274804F009
:102F900059FE48F23712022308A925480C94CDE9BE
:102FA0000823CDE90A6704F04DFE4CF203720223B8
:102FB00008A920480C94CDE90823CDE90A6704F05C
:102FC00041FE40F2FF62022308A91B480C94CDE9A0
:102FD0000823CDE90A6704F035FE4FF60C72022390
:102FE00008A916480C94CDE90823CDE90A6704F036
:102FF00029FE4FF63F02022308A911480C94CDE99F
:103000000823CDE90A6704F01DFE2022022308A947
:103010000A480C94CDE90A67CDE9082304F012FEB2
:103020000EB0D0BD84E400240044025800100258C1
:1030300000180258000C025800200258001C0258C8
:103040000014025830B5184C154685B0046004F1E0
:10305000080EEC460FC98EE80F00D4ED047AF5EEA9
:10306000C07A8CE80F00F1EE10FA1ADDB7EE006AB4
:1030700094ED057A27EE277AC6EE276A84ED0D7A5D
:10308000C4ED0C6A6DB1204640F8185F01F004FCF5
:10309000064903690020064A2162A262E36005B086
:1030A00030BD012005B030BDC0E400240020003058
:1030B0000000003000680830704700BF006818301A
:1030C00001F0ECBB10B4074B4FF07E5130240022CE
:1030D000032019619C60D8605DF8044B5961C3E915
:1030E00006227047C0E40024704700BFF8B5134FB4
:1030F0003C687F2C07D98023114A42F224411C46A8
:103100003B60A2F87E100F4D2B68012B0AD90C4EA4
:103110000D4D22463146284600F0FEF90028F8D130
:103120003860F8BD22460649074800F0F5F9002846
:10313000F7D12B68386001332B60F8BDFCE4002424
:1031400000E50024F8E4002480E5002430B4154CA8
:103150002168F1B14B1E144DE81810F801298C4676
:1031600019460A2A01D00D2A02D14BB1013BF4E7DE
:103170000CF102037F2B10D98023236030BC7047F1
:103180000122022323600D200A236854AB5430BC73
:10319000704701220223044DF4E70CF1010261465D
:1031A000F0E700BFFCE4002400E5002410B5094C62
:1031B00002460B46084821680844C1F180010FF01F
:1031C000BFFB236818442060FFF7C0FFFFF78EFFA6
:1031D00010BD00BFFCE4002400E500240FB400B5DE
:1031E00083B004A951F8040B0191FFF7DFFF03B08E
:1031F0005DF804EB04B0704710B5044600210A489E
:1032000000F004F9002C094B14BF022200220848E8
:103210001A60FFF7E3FF0748FFF7E0FF0A20BDE869
:10322000104002F08FBC00BF80E50024F8E40024C9
:10323000504C0108604C0108064A0749074808B588
:103240000EF0D2FF034A04490548BDE808400EF0DD
:10325000CBBF00BF00000024E930000880E5002457
:1032600084E50024074A118830B481800024064D8B
:1032700091884FF4807285600460C180C26030BC68
:10328000704700BFC03A01080040003038B504461E
:10329000104694F895301942237815D0032B19D095
:1032A00094F89820002594F896300A4025700B4039
:1032B000A26001F0F8021B09F82A237100F0868051
:1032C000092B73D9002038BD032BFBD8DFE803F0AE
:1032D000112A5102F7291CD094F98E2094F88E30CF
:1032E000002AEFDBE21801330020917384F88E305E
:1032F00038BD94F8942094F8973022711940131F28
:10330000012B217305D994F88F3003F0FD03012BB5
:1033100045D10023237018B19022211D0FF0BAF976
:10332000012038BD94F8973094F894201940131F69
:103330002173012B05D994F88F3003F0FD03012B85
:1033400029D10023237000284CD09022211D0FF09A
:10335000A1F994F894200120032AB4D1237B772B80
:10336000B1D90922783B227184F8942084F89130F5
:1033700038BD94F8973094F894201940012A61736D
:1033800000D181B118B19022211D0FF083F90023E3
:103390000120237038BD022300202370DCE70223C4
:1033A0000020237038BD00232371EBE70122072B97
:1033B000227019D101F00703A56084F88F30CBB9D2
:1033C0000322184684F88E30227038BD08232371FA
:1033D00094F8993000221940227084F89010002847
:1033E0009AD19DE70120B7E7082BF1D0284684F851
:1033F000943038BD4B077FF565AF8AE700220A237A
:1034000002700371704700BF704700BF012910B5FB
:1034100006D0022915D051B1BDE8104006F0F4BA2B
:103420000A46344834490CF079F9E8B1FEE7334BE9
:103430000A46334C334934481C600CF06FF968B1CC
:10344000FEE701222C492B480CF068F900B1FEE799
:103450002E4928480CF084F9C0B1FEE72B492A48D0
:103460000CF07EF960B1FEE7284922480CF078F9AB
:1034700000B1FEE726491F480CF000F908B3FEE74B
:10348000244921480CF0FAF8A8B1FEE72049194870
:103490000CF0F4F800B1FEE716480CF077F902469C
:1034A00040B9164B164C174917481C600CF036F9FA
:1034B00068B1FEE7FEE714480CF068F90028ABD0CD
:1034C000FEE70C480CF062F90028A5D0FEE70F4992
:1034D0000D480CF045F900B1FEE70E490A480CF022
:1034E000CDF800B1FEE708480CF050F9002893D061
:1034F000FEE700BF24E8002490020024C0EA002474
:10350000093400087402002488E500240403002420
:103510005402002444020024084691B208B502F087
:10352000E7FD003818BF012008BD00BF014805F0C5
:1035300049BD00BFD0220124014805F043BD00BFB2
:10354000D0220124014805F03DBD00BFD022012456
:1035500010B592B0ADF804100180C9B2149C0B29CB
:10356000C460C0E901233FD090F801C0BCF10F0F47
:103570003AD8022A3FD0032A02D0012A00D00022E2
:103580000E92012B02D0022B18BF0023022C0F93A6
:103590002CD0032C2AD0012C28D000230A291093E8
:1035A00027D85C4A02EB812202610A2914D8DFE89D
:1035B00001F0A39587796B5D4F4133250600564B8B
:1035C000D3F8E01041F48061C3F8E010D3F8E030A4
:1035D00003F480630C930C9B01230DA9104603FA9E
:1035E0000CF30D9304F02EFB12B010BD0A291094B9
:1035F000D7D90022D8E711220E92C2E7464BD3F862
:10360000E01041F40071C3F8E010D3F8E03003F4A7
:1036100000730B930B9BDFE73F4BD3F8E01041F4B3
:103620008071C3F8E010D3F8E03003F480730A939C
:103630000A9BD1E7384BD3F8E01041F08001C3F882
:10364000E010D3F8E03003F080030993099BC3E74F
:10365000314BD3F8E01041F04001C3F8E010D3F84B
:10366000E03003F040030893089BB5E72A4BD3F8FA
:10367000E01041F02001C3F8E010D3F8E03003F08F
:1036800020030793079BA7E7234BD3F8E01041F0F3
:103690001001C3F8E010D3F8E03003F010030693F4
:1036A000069B99E71C4BD3F8E01041F00801C3F8E2
:1036B000E010D3F8E03003F008030593059B8BE797
:1036C000154BD3F8E01041F00401C3F8E010D3F833
:1036D000E03003F004030493049B7DE70E4BD3F822
:1036E000E01041F00201C3F8E010D3F8E03003F03D
:1036F00002030393039B6FE7074BD3F8E01041F0FD
:103700000101C3F8E010D3F8E03003F001030293A5
:10371000029B61E7000002580044025808B50121ED
:1037200043780069994089B204F094FC003818BFCE
:10373000012008BD01230A464178006903FA01F11E
:1037400089B204F08DBC00BF8378022B30B50446EB
:103750008FB037D0032B33D0012B31D000230A9305
:10376000E378012B2AD0022B28D000230B930023CF
:1037700020460C9303F09EF80546204603F0A2F87D
:1037800023780990082B13D8DFE803F01F3245583F
:103790006B7E91A40500594BD3F8E02042F480726F
:1037A000C3F8E020D3F8E03003F480730893089B5B
:1037B00009A9284604F046FA0FB030BD0B93D6E7AE
:1037C0000A93CDE711230A93CAE74C4B09A928466F
:1037D000D3F8E02042F00102C3F8E020D3F8E03053
:1037E00003F001030093009B04F02CFA0FB030BDEE
:1037F000424B09A92846D3F8E02042F00202C3F860
:10380000E020D3F8E03003F002030193019B04F0C1
:1038100019FA0FB030BD394B09A92846D3F8E0207A
:1038200042F00402C3F8E020D3F8E03003F00403D0
:103830000293029B04F006FA0FB030BD2F4B09A98A
:103840002846D3F8E02042F00802C3F8E020D3F87D
:10385000E03003F008030393039B04F0F3F90FB087
:1038600030BD264B09A92846D3F8E02042F01002CB
:10387000C3F8E020D3F8E03003F010030493049B76
:1038800004F0E0F90FB030BD1C4B09A92846D3F86D
:10389000E02042F02002C3F8E020D3F8E03003F04B
:1038A00020030593059B04F0CDF90FB030BD134BF9
:1038B00009A92846D3F8E02042F04002C3F8E020EE
:1038C000D3F8E03003F040030693069B04F0BAF906
:1038D0000FB030BD094B09A92846D3F8E02042F0CB
:1038E0008002C3F8E020D3F8E03003F080030793B0
:1038F000079B04F0A7F90FB030BD00BF0044025889
:1039000070B506460D4602F0D5FF0446304602F07B
:10391000D9FF2A1E0146204618BF0122BDE870408B
:1039200004F09EBB0023122270B586B0CDE90223BD
:1039300004930368032B01D804230593061D841DFB
:10394000304602F0B7FF0546304602F0BBFF0346A3
:1039500001A92846019304F075F9204602F0AAFF58
:10396000034620461C4602F0ADFF01A9034620464F
:10397000019304F067F906B070BD00BF634A0368A5
:10398000934210B58CB028D0614A934258D0614A16
:10399000934200F09480604A934201D00CB010BD75
:1039A0005E4C5F48D4F8E03043F00203C4F8E030E6
:1039B000D4F8E03003F002030A930A9BFFF7B2FF4A
:1039C000D4F8F43043F08003C4F8F430D4F8F43081
:1039D00003F080030B930B9BE0E7504C5148D4F865
:1039E000E03043F00203C4F8E030D4F8E03003F0F4
:1039F00002030193019BFFF795FFD4F8E830002202
:103A00001F2043F400131146C4F8E830D4F8E8301E
:103A100003F400130293029BD4F8D83043F001035F
:103A2000C4F8D830D4F8D83003F001030393039BD3
:103A300003F08CF81F200CB0BDE8104003F0C4B8B0
:103A4000364C3948D4F8E03043F08003C4F8E03015
:103A5000D4F8E03003F080030493049BD4F8E03002
:103A600043F00203C4F8E030D4F8E03003F002037E
:103A70000593059BFFF756FFD4F8E830002221207C
:103A800043F480031146C4F8E830D4F8E83003F476
:103A900080030693069BD4F8D83043F00103C4F8A2
:103AA000D830D4F8D83003F001030793079B03F014
:103AB0004DF821200CB0BDE8104003F085B81B483C
:103AC000FFF730FF154B00224820D3F8E84011469D
:103AD00044F40004C3F8E840D3F8E84004F40004D8
:103AE0000894089CD3F8D84044F00104C3F8D840A7
:103AF000D3F8D83003F001030993099B03F026F8AB
:103B000048200CB0BDE8104003F05EB800540040FF
:103B100000580040005C0040001C0058004402585F
:103B200050ED0024C8EA0024A0EB002478EC002427
:103B30002DE9F0431A4B87B000254FF010099E463F
:103B4000EC46184BFF22E04667461A700EF1180645
:103B50000EF13004CDE90055CDE90255ADF80090E5
:103B6000BCE80F00CDE90455AEE80F009CE8030067
:103B70000095ADF800908EE80300B8E80F000FC67E
:103B80009CE803000095ADF8009086E803000FCF95
:103B90000FC49CE8030084E8030007B0BDE8F0838D
:103BA00004000024C5EA002410B5EFF3108472B6B7
:103BB000084B1A78120602D504B962B610BD1B78FC
:103BC000D82205485BB202FB0300143003F0E8FC86
:103BD000F2E700BFC5EA0024C8EA0024014805F066
:103BE000D7B800BF54EB0024014805F0D1B800BF9E
:103BF0002CEC0024014805F0CBB800BF04ED0024F4
:103C00002DE9F0430F68D8243F4D85B007FB04F43D
:103C1000032F05EB0403036040DCCB680E46012B49
:103C20003CD84DD04FF0D808B646DFF8FC9008FBE2
:103C30000758BEE80F00C446ACE80F00DEF80030BD
:103C40000DF1100ECCF80030D8F808C099E80F003C
:103C50000EE90F000EEB8703BCF1010F53F8103C87
:103C6000C8F88C3031D0BCF1020F42D0BCF1000F4B
:103C700035D0317C8C34D823002201202C4403FB26
:103C800007534900C3E92602C3F894102046C3E94C
:103C90002822C3E92A2204F06DFE18B1012005B0E4
:103CA000BDE8F0830146204605F07EF80028F5D1F6
:103CB0000146204605F0A2F8003818BF0120EEE7C3
:103CC0000B7C103B672BADD9E8E702F0D5F80F4B22
:103CD00098420CBF0E4B0F4BC8F89030C9E702F06A
:103CE000CBF80A4B98420CBF0B4B0C4BC8F89030EA
:103CF000BFE702F0C1F8054B98420CBF084B094BD7
:103D0000C8F89030B5E700BFC8EA0024000E2707C6
:103D10002D0FB0303211D0205F4390608A62E030C6
:103D2000200BA0101A098010C83A01082DE9F041B3
:103D3000D0F8008082B00D4617461E4608F18C046C
:103D4000204605F02DF82028FAD1D8F80C3073B9A8
:103D50006D002046089C33463A46A9B2009404F010
:103D60005FFE003818BF012002B0BDE8F081089B5B
:103D700032463946204604F027FFF2E7044B102272
:103D80001A7483F8E82083F8C02183F898227047DA
:103D9000C8EA002430B5002395B04FF480710622A4
:103DA00004460B9306921393CDE90C13CDE90E3321
:103DB000CDE9113302F062F807282BD004F1100589
:103DC00041F2883206A9284605F06AFF28B101238E
:103DD000184684F85C3015B030BD0222022306A9D3
:103DE0002846CDE9002310220123CDE90223002239
:103DF0004FF48003CDE9042305224FF0807306922F
:103E00006A460F9341F2883306F0B6F80028DED1F7
:103E100015B030BD0323012084F85C3015B030BDEF
:103E200070B50023A4B04FF080724FF48075044643
:103E3000ADF806300D93CDE910320122CDE90E53D5
:103E4000CDE91223CDE91433002943D0F02300F14A
:103E5000100508AEADF80630C02341F28832314675
:103E60002846089305F01CFF28B10123184684F862
:103E70005C3024B070BD41F288320DF10601284655
:103E800005F078FF03460028EFD105224FF480713A
:103E90001E93284616924FF080721B9321931F9217
:103EA00002AA9FED1F7BCDE91C13CDE922338DEDD6
:103EB000027B9FED1D7B41F2883316A98DED047BBB
:103EC0009FED1B7B8DED067B06F056F80028CCD1CC
:103ED00024B070BD00F1100508AE612341F28832B4
:103EE00031462846089305F0DBFE0028BDD141F29B
:103EF00088320DF10601284605F0BAFF0028B4D13A
:103F0000BDF80630204623F0780343F04003ADF8B7
:103F10000630FFF73FFF00289ED0A6E7AFF30080F2
:103F2000000000000100000010000000010000007F
:103F300000000000000040002DE9F04F00234FF486
:103F4000807501264FF0807804462DED028BABB0D2
:103F50008DF8073013932193299314950E96CDF87D
:103F60005C80CDE91533CDE91863CDE91A33CDE98D
:103F70002253CDE92433CDE9273306231C9301F0E6
:103F80007DFF072808D004F1100741F288321CA9F0
:103F9000384605F085FE40B10123184684F85C30B0
:103FA0002BB0BDEC028BBDE8F08F4FF0020A4FF052
:103FB000020B4FF0050941F2883308AA1CA93846C4
:103FC000CDF89480CDF870909FED2D8BCDE908ABA6
:103FD0004FF0000A4FF4800B8DED0A8BCDE90CAB4E
:103FE00005F0CAFF0028D7D141F2883238460EA921
:103FF00005F056FE0028CFD1402341F288320DF162
:10400000070138468DF8073005F0B4FE0028C3D10B
:1040100041F288330EA902AA3846CDF83890CDF87F
:104020005C809FED197B8DED048BCDE906AB8DEDAA
:10403000027B05F0A1FF03460028ADD1CDF87090BA
:104040004FF00109CDF894804FF00008219308AAA1
:1040500029931CA938462295CDE92333CDE927338E
:1040600041F288338DED0A8BCDE90CABCDE908899F
:1040700005F082FF002893D0304684F85C608FE71B
:10408000100000000100000040000000400000009F
:104090002DE9F043624CA3B00D46046001F0EEFE42
:1040A000072800F0A980286823466968AA6807C322
:1040B0001E46AB8926F8043B3046257B677B05F01E
:1040C000D1FDE0B9574B012D4FF00108E0612361AC
:1040D00014BF4FF480134FF40003C4E9058893FA2A
:1040E000A3F3B3FA83F34FF48079013BC4F824902F
:1040F000C4E90B003046236205F048FD38B10122C7
:10410000134684F85C20184623B0BDE8F08366238C
:104110000B90139041F2883206A90693CDE90C90DA
:10412000CDE90E00CDE91100304605F0B9FD0028BB
:10413000E5D1992341F2883206A93046069305F06D
:10414000AFFD0028DBD105231C9019906A4614931B
:104150004FF08073219014A91D9341F288339FED95
:104160002A7BCDE91A90CDE91F008DED007B9FEDF4
:10417000287B30468DED027B9FED277B8DED047B08
:1041800005F0FAFE0028BAD129462046FFF748FE7E
:104190000028B4D12046FFF7CFFE03460028AED159
:1041A000002FB0D1189330460027002606AA14A984
:1041B000CDF86890CDE91F33EB2314934FF440639F
:1041C0001B934FF4005317934FF440431C93A023C9
:1041D0001693062319934FF0805321934FF04073A9
:1041E000CDE906671D9305F03FFF034600288AD0FE
:1041F000434684F85C8086E701230322184684F84E
:104200005C2023B0BDE8F083000000000100000046
:10421000100000000100000000000000000040004D
:1042200028EE0024005000522DE9F04F8FB0414B92
:104230000024026800AF9A427C63C7E90944C7E9D9
:104240000B4403D03C37BD46BDE8F08F3A4B40F6F7
:1042500009213A48EB46D3F8D42007F11C0607F1B0
:10426000220A4FF0020942F480424FF00308C3F8DB
:10427000D420D3F8D42002F48042BA60BA68D3F8CC
:10428000E02042F04002C3F8E020D3F8E02002F042
:104290004002FA60FA68D3F8E02042F02002C3F846
:1042A000E020D3F8E02002F020023A613A69D3F826
:1042B000E02042F01002C3F8E020D3F8E02002F042
:1042C00010027A617A69D3F8E02042F00202C3F862
:1042D000E020D3F8E030F86103F002033984BB61D9
:1042E000174B7B60BB697B6853F8040F7B6002F05F
:1042F000E1FA7B680546186802F0E4FA16F8013B1B
:10430000786207F124012846C7F830807B63C7E94B
:104310000A9403F097FC5645E5D100225C20114633
:1043200002F014FC5C2002F04FFC3C37DD46BD4639
:10433000BDE8F08F00500052004402580A0A0909F3
:1043400084EE0024114B02689A4200D07047104A54
:1043500070B5D2F8D4300F4C23F4804304F1180622
:10436000C2F8D43054F8040F02F0A4FA05462068CD
:1043700002F0A8FA0146284603F0A4FDB442F1D1A8
:104380005C20BDE8704002F02DBC00BF0050005220
:104390000044025884EE0024014805F0F1BE00BF3D
:1043A00038EE0024084B1A1D981D03F1080110B4C3
:1043B0009C1C9A6603F10A02C3E91834C3E91B0185
:1043C0005DF8044B5A67704728EE002438B503683F
:1043D00071B9026A00F1280500F5AC74012A0CBF1E
:1043E000002140218BBB1D4B5722C0F858310DE0F6
:1043F000426A00F1C00500F5E874012A0CBF0021F3
:104400004021EBB1164B5A22C0F8D0310023204690
:10441000C4E901214FF480524FF48061636262610C
:104420004FF48042C4E903314FF48073C4E906239A
:104430004FF40033236202F03BFD58B1FFBEFEE7AC
:10444000084B5822C0F8D031E0E7074B5922C0F89A
:104450005831DBE7C5E92044A56338BD10000240B0
:104460007000024028000240580002402DE9F0434D
:10447000821D05468BB0031D05F10A010830CDE908
:10448000052305F10C02AB69CDE907010992002B68
:104490003DD0EB69B3FA83F84FEA581801230222A2
:1044A00005AE0AAF4FF006090393CDE9012356F894
:1044B000044B2B792278934216D02B68F3B1012B51
:1044C00002D1F2B10A230493204602F0FBF903461D
:1044D0002046009302F0EEF9694603F0B3FBBE42BA
:1044E000E5D10BB0BDE8F083697963789942E4D1F6
:1044F000B8F1000FF3D02B68002BE0D1CDF810906D
:10450000E2E76378022B14BF0A230823DBE74FF0AE
:104510000108C3E7534A0368934230B505468BB0A0
:1045200055D02032934252D04F4A934204D0203289
:10453000934201D00BB030BD4C4C4D48D4F8E03024
:1045400043F00103C4F8E030D4F8E03003F0010395
:104550000593059BD4F8E03043F00803C4F8E0303D
:10456000D4F8E03003F008030693069BD4F8E0305B
:1045700043F04003C4F8E030D4F8E03003F04003E7
:104580000793079BD4F8F03043F40003C4F8F030ED
:10459000D4F8F03003F400030893089BFFF766FF9C
:1045A000D4F8D830296843F001032F4A3048C4F8C2
:1045B000D830891AD4F8D83018BF012103F001038C
:1045C0000993099B0BB0BDE83040FFF7FFBE274CB5
:1045D0002848D4F8E03043F00103C4F8E030D4F8C0
:1045E000E03003F001030093009BD4F8E03043F087
:1045F0001003C4F8E030D4F8E03003F01003019366
:10460000019BD4F8E03043F04003C4F8E030D4F824
:10461000E03003F040030293029BD4F8F03043F4FF
:104620008003C4F8F030D4F8F03003F4800303932F
:10463000039BFFF71BFFD4F8D830296843F0010330
:10464000084A0C48C4F8D830891AD4F8D83018BFB2
:10465000012103F001030493049B0BB0BDE830403B
:10466000FFF7B4BE04580140045C01400044025806
:10467000FCF00024A0EE0024014802F091BF00BF2E
:10468000F8EF0024014802F08BBF00BF70F0002457
:10469000014802F085BF00BF54F20024014802F037
:1046A0007FBF00BFCCF200242DE9F04F0C684FF41F
:1046B0001776754F87B004FB06F6012C07EB060A48
:1046C000C0F800A000F3A0800D468E464FF0000811
:1046D000D44669A3D3E9002369A1D1E90001CDE95A
:1046E000022306ABCAF8508203EB8403CDE9040130
:1046F00053F810BC53F8083CCAE992880193BEE80D
:104700000F00ACE80F00BEE80F00ACE80F00019B03
:104710009EE80300CAF828B0CAF8C0308CE803004D
:104720002B69042B0CD8DFE803F0737D879103001D
:104730004FF41773554A03FB04739A64C3F8E020DF
:10474000AA692B6A002A43D0002B4FF4177308BFC5
:10475000022203FB047318BF0322DA6201221A63E8
:10476000EA696B6A002A40D1191E4FF4177318BF0B
:10477000012103FB0473C3E931126B69022B05D8D5
:10478000434A12F80380434A52F823904FF41773B8
:1047900006F128004246494603FB047400233844CE
:1047A00063646363E365C4F8DC30C4F8CC30C4F8F8
:1047B000F430C4E90F33C4E91533C4E93533C4E92F
:1047C0003B33022307F07EFD002849D0FFBEFEE701
:1047D000191E4FF4177318BF012103FB0473C3E9BB
:1047E0000B12EA696B6A002ABED0002B4FF41773D4
:1047F00008BF022203FB047318BF0322C3F8C420BE
:104800000122C3F8C820B8E7012007B0BDE8F08F47
:104810004FF417734FF4FA5203FB04739A64C3F80E
:10482000E0208DE74FF417734FF47A5203FB0473C3
:104830009A64C3F8E02083E74FF417734FF4FA4209
:1048400003FB04739A64C3F8E02079E74FF417730D
:104850004BF6803203FB04739A64C3F8E0206FE7E1
:1048600006F1C000022342464946384407F02AFDBB
:104870000028CAD0FFBEFEE704580140045C014096
:1048800024580140245C0140A0EE00240077010080
:10489000704C0108744C01080068704703681B697C
:1048A000042B05D8044A02EB830393ED000A7047FA
:1048B0009FED020A704700BF804C010800803B4713
:1048C0001F4BC1680268F0B5D3F88C5083B0036900
:1048D000ADB24D1BA2B1AB4212D00446866811D2D4
:1048E000F018E91ACDE9001001F064F80023DDE9C1
:1048F0000010D4E90062B047E3682561AB421BD0E9
:1049000003B0F0BDF018C91ACDE9000101F052F86A
:104910000023DDE90001D4E90072B847304629469A
:1049200001F048F800233046626829462668B047FF
:10493000E3682561AB42E3D10023236103B0F0BDFE
:10494000000002402DE9F84F04460F4690461E46EF
:1049500000F13405284608F079F82028FAD14FF400
:1049600080630020C4F8D030C4F848314FF440339D
:10497000C4F8CC00C4F8E030C4F858314E4BC4F849
:10498000DC00C4F8C03003F57A73C4F8E400C4F85E
:1049900038314023C4F8C800C4F84031E369C4F892
:1049A0004401C4F85401C4F85C01C4E93500C4E909
:1049B0005300072B0BD8DFE803F061535A373E450D
:1049C0004C045123C4F8C4305223C4F83C3104F5DC
:1049D0009C79484602F06CFA08B1FFBEFEE7C4F8C5
:1049E000A890C4F87051EFF3108972B6DFF8D0B018
:1049F00094F91C30DFF8CCA08BF800300A9B2F4CC8
:104A0000CAF800300B9B23600EB11846B0471FFA5E
:104A100088F23946284607F003FEB0BBB9F1000F13
:104A200000D162B6BDE8F88F3F23C4F8C4304023FC
:104A3000C4F83C31CBE74123C4F8C4304223C4F866
:104A40003C31C4E74723C4F8C4304823C4F83C31A0
:104A5000BDE74F23C4F8C4305023C4F83C31B6E757
:104A60002B23C4F8C4302C23C4F83C31AFE72D23EA
:104A7000C4F8C4302E23C4F83C31A8E72923C4F875
:104A8000C4302A23C4F83C31A1E7FF238BF800305F
:104A90000023CAF8003023600A9B3BB10B98012128
:104AA00098470120B9F1000FBCD1BAE70120B9F154
:104AB000000FB7D1B5E700BF880002409002012483
:104AC0008C020124880201242DE9F84F04460F4688
:104AD00090461E4600F13405284607F0B7FF20280F
:104AE000FAD14FF480630020C4F8D030C4F84831C4
:104AF0004FF44033C4F8CC00C4F8E030C4F8583167
:104B00004E4BC4F8DC00C4F8C03003F57A73C4F827
:104B1000E400C4F838314023C4F8C800C4F8403178
:104B2000E369C4F84401C4F85401C4F85C01C4E961
:104B30003500C4E95300072B0BD8DFE803F06153BD
:104B40005A373E454C045123C4F8C4305223C4F8AC
:104B50003C3104F1C009484602F0AAF908B1FFBE91
:104B6000FEE7C4F8AC90C4F8F850EFF3108972B6C1
:104B7000DFF8D0B094F91C30DFF8CCA08BF800300F
:104B80000A9B2F4CCAF800300B9B23600EB11846CD
:104B9000B0471FFA88F23946284607F093FDB0BBAC
:104BA000B9F1000F00D162B6BDE8F88F3F23C4F819
:104BB000C4304023C4F83C31CBE74123C4F8C430AF
:104BC0004223C4F83C31C4E74723C4F8C430482327
:104BD000C4F83C31BDE74F23C4F8C4305023C4F8B7
:104BE0003C31B6E72B23C4F8C4302C23C4F83C3145
:104BF000AFE72D23C4F8C4302E23C4F83C31A8E716
:104C00002923C4F8C4302A23C4F83C31A1E7FF2388
:104C10008BF800300023CAF8003023600A9B3BB1B8
:104C20000B98012198470120B9F1000FBCD1BAE7D8
:104C30000120B9F1000FB7D1B5E700BF88000240ED
:104C4000900201248C020124880201242DE9F04104
:104C50000D4682B0EFF3108772B6002948D1FF23CA
:104C6000254A264C237013682BB10020294610607A
:104C7000234A1068984723781B0625D5DFF88880DB
:104C80000025204E444605E001351C3406F5D87653
:104C9000092D19D0A369012B1BD0002BF4D1216859
:104CA00030460029F0D06369019323690093E368DB
:104CB0002289FFF709FF0028E6D1C5EBC50508EBFF
:104CC000850348F82500586007B962B602B0BDE810
:104CD000F08161680029D7D0636930460193236968
:104CE0000093E3682289FFF72DFE0028CCD1E4E78A
:104CF00009F0A8F9B3E700BF880201248C0201245F
:104D00009002012458F300244C000024F0B5002345
:104D100087B0022204460493CDE90223027EC369D0
:104D20000B2A4FEA430523D1A27E0B2A02D1002091
:104D300007B0F0BD48496B1C484851F8233045780E
:104D400001781878E67E884269D0824277D0D87898
:104D500003F1030C81426ED0824278D0987903F13E
:104D6000060C88426FD0824233D0012007B0F0BDDC
:104D7000394B3A4853F8253001784678187894F83A
:104D800019C081423DD0824241D0D87803F1030E50
:104D9000814240D082424AD0987903F1060E88427F
:104DA00041D08242E1D1DB796345DED1734604F123
:104DB00018069B783046059301F07CFD034630468B
:104DC0001E4601F07FFD01A90190304602F03AFF36
:104DD000AAE7DB79B342C8D163461A349B782046F0
:104DE000059301F067FD034620461C4601F06AFD6D
:104DF000034601A92046019302F024FF002007B0DA
:104E0000F0BD93F801E0B645BFD08242BDD15878DD
:104E10006045BAD1CBE71F79B742BBD1BCE75F7819
:104E2000AF4292D193E7D979B142BAD19DE71879CF
:104E30006045B1D1BAE71F79AF428DD18EE758787E
:104E4000B04284D1C9E7D979A9428CD18DE71879CC
:104E5000B04283D1C0E700BF640100246001002498
:104E60007E4A03689342F0B58FB000F0E380A2F56C
:104E70004C42934200F0E08002F58062934200F0E1
:104E8000DD8002F58062934200F0DA8002F58062F4
:104E9000934200F0D98002F54442934200F0D28060
:104EA000A2F51C42934200F0D18002F58062934249
:104EB00000F0CE806A4A934240F0CC800826694DCB
:104EC0004FF4D87404FB0654A07E01F003FD207E4D
:104ED00001F000FDE369082B13D8DFE803F03B493C
:104EE000576573818F9D05005F4BD3F8F42042F026
:104EF0000802C3F8F420D3F8F43003F00803089351
:104F0000089B2046FFF702FF012801D1FFBEFEE704
:104F10004FF4D8740EAA554F0DF1240C04FB06541F
:104F2000E36902EB43050FCFACE80F003B680022BA
:104F3000ACF80030114635F9140C01F007FEE369B6
:104F40000EAA02EB430333F9140C0FB0BDE8F04096
:104F500001F03ABE444BD3F8F02042F01002C3F8FF
:104F6000F020D3F8F03003F010030093009BC8E763
:104F70003D4BD3F8E82042F40032C3F8E820D3F8E0
:104F8000E83003F400330193019BBAE7364BD3F8C2
:104F9000E82042F48022C3F8E820D3F8E83003F494
:104FA00080230293029BACE72F4BD3F8E82042F416
:104FB0000022C3F8E820D3F8E83003F40023039379
:104FC000039B9EE7284BD3F8E82042F48012C3F8F5
:104FD000E820D3F8E83003F480130493049B90E7AF
:104FE000214BD3F8F02042F02002C3F8F020D3F890
:104FF000F03003F020030593059B82E71A4BD3F8AA
:10500000E82042F08042C3F8E820D3F8E83003F00B
:1050100080430693069B74E7134BD3F8E82042F0D5
:105020000042C3F8E820D3F8E83003F000430793C8
:10503000079B66E7002642E7012640E702263EE797
:1050400003263CE705263AE7042638E7062636E736
:10505000072634E700239B7EFFDE00BF00100140DF
:10506000000C005858F3002400440258D83A0108B4
:105070002DE9F04F91B0002301223F490DF1240AA0
:1050800009938B4601F11C09CAF8143001F1380864
:10509000CDF800A001F15407CDF804A001F170068D
:1050A000CDF808A001F18C05CDF80CA001F1A80401
:1050B000CDF810A001F1C40ECDF814A001F1E00C60
:1050C000CAE90133CAE903330F92FF222B4BCDE922
:1050D00006AA1A70BAE80F00ABE80F009AE80700BA
:1050E000009B8BE807009B46BBE80F00A9E80F0078
:1050F0009AE80700019B89E807009946B9E80F0084
:10510000A8E80F009AE80700029B88E80700984685
:10511000B8E80F000FC79AE80700039B87E807006D
:105120001F460FCF0FC69AE80700049B86E80700CA
:105130001E460FCE0FC59AE80700059B85E80700BD
:105140001D460FCD0FC49AE80700069B84E80700B0
:105150001C460FCCAEE80F00079B9AE807001C46E0
:105160008EE807000FCCACE80F009AE807008CE847
:10517000070011B0BDE8F08F4C0000248C02012420
:1051800010B5094C04F1340007F06EFB237D1BB110
:10519000636BDB69DB0600D410BD2046FFF790FB94
:1051A000636B10221A6210BD58F3002410B50B4C2B
:1051B00004F5F27007F058FB94F8C43123B1D4F829
:1051C000E431DB69DB0600D410BD04F5D870FFF7CD
:1051D00077FBD4F8E43110221A6210BD58F3002492
:1051E00010B50B4C04F5657007F03EFB94F8743372
:1051F00023B1D4F89433DB69DB0600D410BD04F589
:105200005870FFF75DFBD4F8943310221A6210BD7A
:1052100058F3002410B50B4C04F2445007F024FB63
:1052200094F8243523B1D4F84435DB69DB0600D487
:1052300010BD04F5A260FFF743FBD4F844351022FB
:105240001A6210BD58F3002410B50B4C04F2F46040
:1052500007F00AFB94F8D43623B1D4F8F436DB69AE
:10526000DB0600D410BD04F5D860FFF729FBD4F8A5
:10527000F43610221A6210BD58F3002410B50B4CFE
:1052800004F6A40007F0F0FA94F8843823B1D4F8B7
:10529000A438DB69DB0600D410BD04F50760FFF716
:1052A0000FFBD4F8A43810221A6210BD58F3002462
:1052B00010B50B4C04F6542007F0D6FA94F8343AA3
:1052C00023B1D4F8543ADB69DB0600D410BD04F5F1
:1052D0002260FFF7F5FAD4F8543A10221A6210BD92
:1052E00058F3002410B50B4C04F6044007F0BCFA48
:1052F00094F8E43B23B1D4F8043CDB69DB0600D42A
:1053000010BD04F53D60FFF7DBFAD4F8043C102231
:105310001A6210BD58F3002410B50B4C04F6B450BB
:1053200007F0A2FA94F8943D23B1D4F8B43DDB69B8
:10533000DB0600D410BD04F55860FFF7C1FAD4F8BD
:10534000B43D10221A6210BD58F3002410B5EFF3DB
:10535000108472B6084B1A78120602D504B962B6E8
:1053600010BD1B784FF4D87204485BB202FB0300F7
:10537000C03002F015F9F1E78C02012458F3002443
:1053800010B5EFF3108472B6094B1A78120602D5E5
:1053900004B962B610BD1B784FF4D87205485BB2F1
:1053A00002FB030000F59C7002F0FAF8F0E700BF82
:1053B0008C02012458F300240021FFF747BC00BFF2
:1053C000214A036893422BD0A2F54C42934229D044
:1053D00002F58062934227D002F58062934225D085
:1053E00002F58062934223D002F54442934221D0D9
:1053F000A2F51C4293421FD002F5806293421DD059
:10540000124A93421CD108224FF4D871104B01FB71
:105410000233197D11B11846FFF752BAFFF716BCD7
:105420000022F1E70122EFE70222EDE70322EBE79A
:105430000422E9E70522E7E70622E5E70722E3E79A
:1054400000231B7DFFDE00BF00100140000C005850
:1054500058F30024204A0368934229D0A2F54C4215
:10546000934227D002F58062934225D002F58062F4
:10547000934223D002F58062934221D002F5444248
:1054800093421FD0A2F51C4293421DD002F58062C8
:1054900093421BD0114A93421AD1082310484FF46B
:1054A000D87202FB0300037D03B97047FFF708BA07
:1054B0000023F3E70123F1E70223EFE70323EDE7FE
:1054C0000423EBE70523E9E70623E7E70723E5E7FE
:1054D00000231B7DFFDE00BF00100140000C0058C0
:1054E00058F300240121FFF7B1BB00BF2DE9F041C3
:1054F0004F684FF4D876DFF8C0808E4607FB06F67B
:105500000C46082F08EB0605056005F1180CBEE8EF
:105510000F00ACE80F009EE807008CE8070002D8F7
:105520006B6A022B02D90120BDE8F0812A6A032AA6
:10553000F9D8A96A0229F6D8E86A0228F3D8013115
:10554000DFF878C0343689005CF8277046446F6312
:10555000A469A9641549AC6351F823306B64144BFA
:1055600053F82230134A2B64002352F820100122F2
:105570003046EB65E963C5E91333C5E9153208F038
:1055800061FD0028CFD10146304608F0B3FD002868
:10559000C9D10146304608F0FBFD0028C3D1304692
:1055A00008F08AFD0028BED12875BDE7B84C010877
:1055B000C44C0108D44C010858F30024944C010851
:1055C000F8B504681646069A4FF4807723600023E6
:1055D0006260012223610D4622753C4AC4F8CC303A
:1055E000C4F8C0204FF48062C4F8E430C4F8C83076
:1055F000C4F8D0204FF44032A160E660C4E93533EE
:10560000E369C4E93772072B0BD8DFE803F02E35C6
:105610003C434A51580451225223C4F8C420C4F8D0
:105620003C3104F1C007384601F042FC08B10120CA
:10563000F8BD626B04F13403C4F8AC703146C4F8B1
:10564000F8301F461368284643F01003136000F03B
:10565000B1F92946B2B2384607F034F80028E6D14D
:1056600094F91C201A4B1A70F8BD29222A23C4F879
:10567000C420C4F83C31D4E72B222C23C4F8C42026
:10568000C4F83C31CDE72D222E23C4F8C420C4F841
:105690003C31C6E73F224023C4F8C420C4F83C3163
:1056A000BFE741224223C4F8C420C4F83C31B8E724
:1056B00047224823C4F8C420C4F83C31B1E74F2244
:1056C0005023C4F8C420C4F83C31AAE78800024043
:1056D0008C0201240368187D704700BF006892B2F5
:1056E00008B534300A2306F00BFF003818BF01203C
:1056F00008BD00BF534B0122002047F6122130B4F1
:10570000C3E97420C3E97721C3E9E020C3E9E321B9
:105710001A62DA6258621963C3F83025C3F8340597
:10572000C3F83C25C3F84015C3F8E026C3F8E406E7
:10573000C3F8EC26C3F8F016C3F89028C3F8940811
:10574000C3F89C28C3F8A018C3F8402AC3F8440A39
:10575000C3F84C2AC3F8501AC3F8F02BC3F8F40B63
:10576000C3F8FC2BC3F8001CC3F8A40D3648C3F8DB
:10577000A02DC3F8AC2DC3F8B01D0288837833493F
:105780000068334CCA804FEA104C0B723149E280FA
:105790002372A1F80320A4F8032063714B712E4CEF
:1057A000CA800B722D492E4DE2802372A1F803208E
:1057B000A4F8032063714B712A4CCA800B722A49EA
:1057C000EA8008802B7281F802C0E2802372A1F87F
:1057D00003204B71CA800B722449A1F803204B713E
:1057E000CA800B722249A1F803204B71CA800B7248
:1057F0002049088081F802C0A1F803204B71CA80BB
:105800000B721D49088081F802C0A1F803204B717A
:10581000CA800B721949088081F802C01848A1F8A3
:1058200003204B71CA800B721649A0F80320437104
:10583000C2800372A1F803204B71CA800B7230BC86
:10584000704700BF58F3002460010024E8010024E1
:105850000C02002400020024240200241802002468
:10586000F4010024D0010024B802012430020024F5
:10587000DC01002494020124AC020124A0020124D2
:1058800054010024480100243E4B00220B20114605
:1058900010B5D3F8D84082B044F00104C3F8D84022
:1058A000D3F8D84004F001040094009CD3F8D84009
:1058B00044F00204C3F8D840D3F8D83003F0020310
:1058C0000193019B01F042F90B2001F07DF90022C8
:1058D0000C20114601F03AF90C2001F075F9002274
:1058E0000D20114601F032F90D2001F06DF9002272
:1058F0000E20114601F02AF90E2001F065F9002270
:105900000F20114601F022F90F2001F05DF900226D
:105910001020114601F01AF9102001F055F900226B
:105920003C20114601F012F93C2001F04DF9002213
:105930001120114601F00AF9112001F045F9002269
:105940003820114601F002F9382001F03DF900221B
:105950003920114601F0FAF8392001F035F900221A
:105960003A20114601F0F2F83A2001F02DF9002218
:105970003B20114601F0EAF83B2002B0BDE81040A0
:1059800001F022B90044025820F01F002031BFF37B
:105990004F8F002907DD064A0144C2F86802203013
:1059A0000B1A002BF9DCBFF34F8FBFF36F8F7047DB
:1059B00000ED00E020F01F002031BFF34F8F0029E1
:1059C00007DD064A0144C2F85C0220300B1A002BA6
:1059D000F9DCBFF34F8FBFF36F8F704700ED00E02E
:1059E000704700BF08B501F075F8BDE8084001F048
:1059F00075B900BF064808B503680BB102F034FB67
:105A0000044803681BB1BDE8084003F0DBBA08BDD9
:105A1000E02C0124D8260124064808B503680BB100
:105A200002F022FB044803681BB1BDE8084003F004
:105A3000C9BA08BDE02C0124D8260124064808B5BF
:105A400003680BB102F010FB044803681BB1BDE80A
:105A5000084003F0B7BA08BDE02C0124D826012481
:105A6000364BDA6A520062D59A6A9A6A9A6A9B6AD7
:105A7000180600D500BE314B9B6A990600D500BEC2
:105A80002E4B9B6ADA0600D500BE2C4B9B6A1B0787
:105A900000D500BE294B9B6A980700D500BE274B56
:105AA0009B6AD90700D500BE244B9B6A1A0400D517
:105AB00000BE224B9B6A9B0400D500BE1F4B9B6A15
:105AC000D80400D500BE1D4B9B6A190500D500BE49
:105AD0001A4B9B6A5A0500D500BE184B9B6A9B0562
